{
  "contractName": "PiggyBank",
  "abi": [
    {
      "constant": true,
      "inputs": [
        {
          "name": "",
          "type": "uint256"
        }
      ],
      "name": "piggyBanks",
      "outputs": [
        {
          "name": "id",
          "type": "uint256"
        },
        {
          "name": "owner",
          "type": "address"
        },
        {
          "name": "savingAmount",
          "type": "uint256"
        },
        {
          "name": "goalAmount",
          "type": "uint256"
        },
        {
          "name": "isActive",
          "type": "bool"
        }
      ],
      "payable": false,
      "stateMutability": "view",
      "type": "function",
      "signature": "0x3c6bb3f9"
    },
    {
      "anonymous": false,
      "inputs": [
        {
          "indexed": false,
          "name": "userAddress",
          "type": "address"
        },
        {
          "indexed": false,
          "name": "id",
          "type": "uint256"
        },
        {
          "indexed": false,
          "name": "goalAmount",
          "type": "uint256"
        }
      ],
      "name": "Create",
      "type": "event",
      "signature": "0x278b0fd0170e87df8d6e9c94b47d3ff7382de693c547e6089b53f9972c532389"
    },
    {
      "anonymous": false,
      "inputs": [
        {
          "indexed": false,
          "name": "userAddress",
          "type": "address"
        },
        {
          "indexed": false,
          "name": "id",
          "type": "uint256"
        },
        {
          "indexed": false,
          "name": "amount",
          "type": "uint256"
        },
        {
          "indexed": false,
          "name": "savingAmount",
          "type": "uint256"
        },
        {
          "indexed": false,
          "name": "goalAmount",
          "type": "uint256"
        }
      ],
      "name": "Deposit",
      "type": "event",
      "signature": "0x7162984403f6c73c8639375d45a9187dfd04602231bd8e587c415718b5f7e5f9"
    },
    {
      "anonymous": false,
      "inputs": [
        {
          "indexed": false,
          "name": "userAddress",
          "type": "address"
        },
        {
          "indexed": false,
          "name": "id",
          "type": "uint256"
        },
        {
          "indexed": false,
          "name": "amount",
          "type": "uint256"
        }
      ],
      "name": "Destroy",
      "type": "event",
      "signature": "0x16b35c733876ade87e5062332519f2666918ff4b5a284a7f4625c231cda6ff28"
    },
    {
      "constant": false,
      "inputs": [
        {
          "name": "goalAmount",
          "type": "uint256"
        }
      ],
      "name": "create",
      "outputs": [],
      "payable": false,
      "stateMutability": "nonpayable",
      "type": "function",
      "signature": "0x780900dc"
    },
    {
      "constant": false,
      "inputs": [
        {
          "name": "id",
          "type": "uint256"
        }
      ],
      "name": "deposit",
      "outputs": [],
      "payable": true,
      "stateMutability": "payable",
      "type": "function",
      "signature": "0xb6b55f25"
    },
    {
      "constant": false,
      "inputs": [
        {
          "name": "id",
          "type": "uint256"
        }
      ],
      "name": "destroy",
      "outputs": [],
      "payable": false,
      "stateMutability": "nonpayable",
      "type": "function",
      "signature": "0x9d118770"
    }
  ],
  "bytecode": "0x608060405234801561001057600080fd5b50610a30806100206000396000f300608060405260043610610062576000357c0100000000000000000000000000000000000000000000000000000000900463ffffffff1680633c6bb3f914610067578063780900dc146100f45780639d11877014610121578063b6b55f251461014e575b600080fd5b34801561007357600080fd5b506100926004803603810190808035906020019092919050505061016e565b604051808681526020018573ffffffffffffffffffffffffffffffffffffffff1673ffffffffffffffffffffffffffffffffffffffff168152602001848152602001838152602001821515151581526020019550505050505060405180910390f35b34801561010057600080fd5b5061011f600480360381019080803590602001909291905050506101e0565b005b34801561012d57600080fd5b5061014c60048036038101908080359060200190929190505050610357565b005b61016c6004803603810190808035906020019092919050505061072a565b005b60008181548110151561017d57fe5b90600052602060002090600502016000915090508060000154908060010160009054906101000a900473ffffffffffffffffffffffffffffffffffffffff16908060020154908060030154908060040160009054906101000a900460ff16905085565b600080805490509050600060a0604051908101604052808381526020013373ffffffffffffffffffffffffffffffffffffffff1681526020016000815260200184815260200160011515815250908060018154018082558091505090600182039060005260206000209060050201600090919290919091506000820151816000015560208201518160010160006101000a81548173ffffffffffffffffffffffffffffffffffffffff021916908373ffffffffffffffffffffffffffffffffffffffff160217905550604082015181600201556060820151816003015560808201518160040160006101000a81548160ff0219169083151502179055505050507f278b0fd0170e87df8d6e9c94b47d3ff7382de693c547e6089b53f9972c532389338284604051808473ffffffffffffffffffffffffffffffffffffffff1673ffffffffffffffffffffffffffffffffffffffff168152602001838152602001828152602001935050505060405180910390a15050565b600080600080925060009150600090505b6000805490508110156103e2578360008281548110151561038557fe5b90600052602060002090600502016000015414156103d5578091506000828154811015156103af57fe5b906000526020600020906005020160040160009054906101000a900460ff1692506103e2565b8080600101915050610368565b821515610457576040517f08c379a00000000000000000000000000000000000000000000000000000000081526004018080602001828103825260098152602001807f4e6f74204578697374000000000000000000000000000000000000000000000081525060200191505060405180910390fd5b3373ffffffffffffffffffffffffffffffffffffffff1660008381548110151561047d57fe5b906000526020600020906005020160010160009054906101000a900473ffffffffffffffffffffffffffffffffffffffff1673ffffffffffffffffffffffffffffffffffffffff1614151561053a576040517f08c379a000000000000000000000000000000000000000000000000000000000815260040180806020018281038252600e8152602001807f496e636f7272656374205573657200000000000000000000000000000000000081525060200191505060405180910390fd5b60008281548110151561054957fe5b90600052602060002090600502016003015460008381548110151561056a57fe5b906000526020600020906005020160020154101515156105f2576040517f08c379a000000000000000000000000000000000000000000000000000000000815260040180806020018281038252601a8152602001807f496e73756666696369656e7420536176696e6720416d6f756e7400000000000081525060200191505060405180910390fd5b3373ffffffffffffffffffffffffffffffffffffffff166108fc60008481548110151561061b57fe5b9060005260206000209060050201600201549081150290604051600060405180830381858888f19350505050158015610658573d6000803e3d6000fd5b506000808381548110151561066957fe5b906000526020600020906005020160040160006101000a81548160ff0219169083151502179055507f16b35c733876ade87e5062332519f2666918ff4b5a284a7f4625c231cda6ff2833856000858154811015156106c357fe5b906000526020600020906005020160020154604051808473ffffffffffffffffffffffffffffffffffffffff1673ffffffffffffffffffffffffffffffffffffffff168152602001838152602001828152602001935050505060405180910390a150505050565b600080600080925060009150600090505b6000805490508110156107b5578360008281548110151561075857fe5b90600052602060002090600502016000015414156107a85780915060008281548110151561078257fe5b906000526020600020906005020160040160009054906101000a900460ff1692506107b5565b808060010191505061073b565b82151561082a576040517f08c379a00000000000000000000000000000000000000000000000000000000081526004018080602001828103825260098152602001807f4e6f74204578697374000000000000000000000000000000000000000000000081525060200191505060405180910390fd5b3373ffffffffffffffffffffffffffffffffffffffff1660008381548110151561085057fe5b906000526020600020906005020160010160009054906101000a900473ffffffffffffffffffffffffffffffffffffffff1673ffffffffffffffffffffffffffffffffffffffff1614151561090d576040517f08c379a000000000000000000000000000000000000000000000000000000000815260040180806020018281038252600e8152602001807f496e636f7272656374205573657200000000000000000000000000000000000081525060200191505060405180910390fd5b3460008381548110151561091d57fe5b9060005260206000209060050201600201600082825401925050819055507f7162984403f6c73c8639375d45a9187dfd04602231bd8e587c415718b5f7e5f933853460008681548110151561096e57fe5b90600052602060002090600502016002015460008781548110151561098f57fe5b906000526020600020906005020160030154604051808673ffffffffffffffffffffffffffffffffffffffff1673ffffffffffffffffffffffffffffffffffffffff1681526020018581526020018481526020018381526020018281526020019550505050505060405180910390a1505050505600a165627a7a7230582063806f0ae77be499618552bea7d1912c07979c2c98d3c4f71a73fcef422635850029",
  "source": "pragma solidity ^0.4.25;\n\n// ETH貯金箱\ncontract PiggyBank {\n\n    // 貯金箱\n    struct PiggyBank {\n        uint id;\n        address owner; // 所有者\n        uint savingAmount; // 貯金額\n        uint goalAmount; // 目標額\n        bool isActive; // 貯金箱が破壊されたかどうか\n    }\n\n    PiggyBank[] public piggyBanks;\n\n    event Create(address userAddress, uint id, uint goalAmount);\n    event Deposit(address userAddress, uint id, uint amount, uint savingAmount, uint goalAmount);\n    event Destroy(address userAddress, uint id, uint amount);\n\n    function create(uint goalAmount) public {\n        uint id = piggyBanks.length;\n        piggyBanks.push(PiggyBank({\n            id: id,\n            owner: msg.sender,\n            savingAmount: 0,\n            goalAmount: goalAmount,\n            isActive: true\n        }));\n        emit Create(msg.sender, id, goalAmount);\n    }\n\n    // ETHを貯金する\n    function deposit(uint id) payable public {\n        bool isExist = false;\n        uint index = 0;\n        for (uint i = 0; i < piggyBanks.length; i++) {\n            if (piggyBanks[i].id == id ) {\n                index = i;\n                isExist = piggyBanks[index].isActive;\n                break;\n            }\n        }\n        require(isExist, \"Not Exist\");\n        require(piggyBanks[index].owner == msg.sender, \"Incorrect User\");\n        piggyBanks[index].savingAmount += msg.value;\n        emit Deposit(msg.sender, id, msg.value, piggyBanks[index].savingAmount, piggyBanks[index].goalAmount);\n    }\n\n    // 貯金箱を壊してお金を取り出す\n    function destroy(uint id) public {\n        bool isExist = false;\n        uint index = 0;\n        for (uint i = 0; i < piggyBanks.length; i++) {\n            if (piggyBanks[i].id == id) {\n                index = i;\n                isExist = piggyBanks[index].isActive;\n                break;\n            }\n        }\n        require(isExist, \"Not Exist\");\n        require(piggyBanks[index].owner == msg.sender, \"Incorrect User\");\n        require(piggyBanks[index].savingAmount >= piggyBanks[index].goalAmount, \"Insufficient Saving Amount\");\n        msg.sender.transfer(piggyBanks[index].savingAmount);\n        piggyBanks[index].isActive = false;\n        emit Destroy(msg.sender, id, piggyBanks[index].savingAmount);\n    }\n}\n",
  "sourcePath": "/Users/kotaro/Documents/eth-piggy-bank/contracts/PiggyBank.sol",
  "compiler": {
    "name": "solc",
    "version": "0.4.25+commit.59dbf8f1.Emscripten.clang"
  },
  "schemaVersion": "3.0.0",
  "updatedAt": "2019-01-21T14:31:36.897Z",
  "devdoc": {
    "methods": {}
  },
  "userdoc": {
    "methods": {}
  }
}