{
  "contractName": "PiggyBank",
  "abi": [
    {
      "constant": true,
      "inputs": [],
      "name": "goalAmount",
      "outputs": [
        {
          "name": "",
          "type": "uint256"
        }
      ],
      "payable": false,
      "stateMutability": "view",
      "type": "function"
    },
    {
      "constant": false,
      "inputs": [],
      "name": "renounceOwnership",
      "outputs": [],
      "payable": false,
      "stateMutability": "nonpayable",
      "type": "function"
    },
    {
      "constant": true,
      "inputs": [],
      "name": "owner",
      "outputs": [
        {
          "name": "",
          "type": "address"
        }
      ],
      "payable": false,
      "stateMutability": "view",
      "type": "function"
    },
    {
      "constant": true,
      "inputs": [],
      "name": "isOwner",
      "outputs": [
        {
          "name": "",
          "type": "bool"
        }
      ],
      "payable": false,
      "stateMutability": "view",
      "type": "function"
    },
    {
      "constant": false,
      "inputs": [
        {
          "name": "newOwner",
          "type": "address"
        }
      ],
      "name": "transferOwnership",
      "outputs": [],
      "payable": false,
      "stateMutability": "nonpayable",
      "type": "function"
    },
    {
      "inputs": [
        {
          "name": "_goalAmount",
          "type": "uint256"
        }
      ],
      "payable": false,
      "stateMutability": "nonpayable",
      "type": "constructor"
    },
    {
      "anonymous": false,
      "inputs": [
        {
          "indexed": false,
          "name": "userAddress",
          "type": "address"
        },
        {
          "indexed": false,
          "name": "contractAddress",
          "type": "address"
        },
        {
          "indexed": false,
          "name": "amount",
          "type": "uint256"
        }
      ],
      "name": "Deposit",
      "type": "event"
    },
    {
      "anonymous": false,
      "inputs": [
        {
          "indexed": false,
          "name": "userAddress",
          "type": "address"
        },
        {
          "indexed": false,
          "name": "contractAddress",
          "type": "address"
        },
        {
          "indexed": false,
          "name": "amount",
          "type": "uint256"
        }
      ],
      "name": "Destroy",
      "type": "event"
    },
    {
      "anonymous": false,
      "inputs": [
        {
          "indexed": true,
          "name": "previousOwner",
          "type": "address"
        },
        {
          "indexed": true,
          "name": "newOwner",
          "type": "address"
        }
      ],
      "name": "OwnershipTransferred",
      "type": "event"
    },
    {
      "constant": false,
      "inputs": [],
      "name": "deposit",
      "outputs": [],
      "payable": true,
      "stateMutability": "payable",
      "type": "function"
    },
    {
      "constant": false,
      "inputs": [],
      "name": "destroy",
      "outputs": [],
      "payable": false,
      "stateMutability": "nonpayable",
      "type": "function"
    }
  ],
  "bytecode": "0x608060405234801561001057600080fd5b5060405160208061077783398101806040528101908080519060200190929190505050336000806101000a81548173ffffffffffffffffffffffffffffffffffffffff021916908373ffffffffffffffffffffffffffffffffffffffff1602179055506000809054906101000a900473ffffffffffffffffffffffffffffffffffffffff1673ffffffffffffffffffffffffffffffffffffffff16600073ffffffffffffffffffffffffffffffffffffffff167f8be0079c531659141344cd1fd0a4f28419497f9722a3daafe3b4186f6b6457e060405160405180910390a38060018190555050610671806101066000396000f300608060405260043610610083576000357c0100000000000000000000000000000000000000000000000000000000900463ffffffff1680632636b94514610088578063715018a6146100b357806383197ef0146100ca5780638da5cb5b146100e15780638f32d59b14610138578063d0e30db014610167578063f2fde38b14610171575b600080fd5b34801561009457600080fd5b5061009d6101b4565b6040518082815260200191505060405180910390f35b3480156100bf57600080fd5b506100c86101ba565b005b3480156100d657600080fd5b506100df61028c565b005b3480156100ed57600080fd5b506100f66103f8565b604051808273ffffffffffffffffffffffffffffffffffffffff1673ffffffffffffffffffffffffffffffffffffffff16815260200191505060405180910390f35b34801561014457600080fd5b5061014d610421565b604051808215151515815260200191505060405180910390f35b61016f610478565b005b34801561017d57600080fd5b506101b2600480360381019080803573ffffffffffffffffffffffffffffffffffffffff16906020019092919050505061052c565b005b60015481565b6101c2610421565b15156101cd57600080fd5b600073ffffffffffffffffffffffffffffffffffffffff166000809054906101000a900473ffffffffffffffffffffffffffffffffffffffff1673ffffffffffffffffffffffffffffffffffffffff167f8be0079c531659141344cd1fd0a4f28419497f9722a3daafe3b4186f6b6457e060405160405180910390a360008060006101000a81548173ffffffffffffffffffffffffffffffffffffffff021916908373ffffffffffffffffffffffffffffffffffffffff160217905550565b600080610297610421565b15156102a257600080fd5b3091508173ffffffffffffffffffffffffffffffffffffffff163190506001548110151515610339576040517f08c379a00000000000000000000000000000000000000000000000000000000081526004018080602001828103825260148152602001807f496e73756666696369656e7420536176696e677300000000000000000000000081525060200191505060405180910390fd5b7fd95983c3e43f022140f4f9f9687e15a94817453c724f8a18ccfe52a43d594b7d338383604051808473ffffffffffffffffffffffffffffffffffffffff1673ffffffffffffffffffffffffffffffffffffffff1681526020018373ffffffffffffffffffffffffffffffffffffffff1673ffffffffffffffffffffffffffffffffffffffff168152602001828152602001935050505060405180910390a16103e06103f8565b73ffffffffffffffffffffffffffffffffffffffff16ff5b60008060009054906101000a900473ffffffffffffffffffffffffffffffffffffffff16905090565b60008060009054906101000a900473ffffffffffffffffffffffffffffffffffffffff1673ffffffffffffffffffffffffffffffffffffffff163373ffffffffffffffffffffffffffffffffffffffff1614905090565b610480610421565b151561048b57600080fd5b7f5548c837ab068cf56a2c2479df0882a4922fd203edb7517321831d95078c5f62333034604051808473ffffffffffffffffffffffffffffffffffffffff1673ffffffffffffffffffffffffffffffffffffffff1681526020018373ffffffffffffffffffffffffffffffffffffffff1673ffffffffffffffffffffffffffffffffffffffff168152602001828152602001935050505060405180910390a1565b610534610421565b151561053f57600080fd5b6105488161054b565b50565b600073ffffffffffffffffffffffffffffffffffffffff168173ffffffffffffffffffffffffffffffffffffffff161415151561058757600080fd5b8073ffffffffffffffffffffffffffffffffffffffff166000809054906101000a900473ffffffffffffffffffffffffffffffffffffffff1673ffffffffffffffffffffffffffffffffffffffff167f8be0079c531659141344cd1fd0a4f28419497f9722a3daafe3b4186f6b6457e060405160405180910390a3806000806101000a81548173ffffffffffffffffffffffffffffffffffffffff021916908373ffffffffffffffffffffffffffffffffffffffff160217905550505600a165627a7a72305820d210389422aff856a6499d3bbf8af7c62f4137f0fd94d2c695a12459ccea2d980029",
  "source": "pragma solidity ^0.4.25;\n\nimport 'openzeppelin-solidity/contracts/ownership/Ownable.sol';\n\n// ETH貯金箱\ncontract PiggyBank is Ownable {\n\n    uint256 public goalAmount; // 貯金目標額(wei)\n\n    event Deposit(address userAddress, address contractAddress, uint amount);\n    event Destroy(address userAddress, address contractAddress, uint amount);\n    // event Withdraw(address addr, uint amount, bool done);\n\n    // コントラクトの初期化\n    constructor(uint _goalAmount) {\n        goalAmount = _goalAmount;\n    }\n\n    // ETHを貯金する\n    function deposit() onlyOwner payable {\n        emit Deposit(msg.sender, address(this), msg.value);\n    }\n\n    // 貯金箱を壊してお金を取り出す\n    function destroy() onlyOwner {\n        address contractAddress = address(this);\n        uint amount = contractAddress.balance;\n        require(amount >= goalAmount, \"Insufficient Savings\");\n        emit Destroy(msg.sender, contractAddress, amount);\n        selfdestruct(owner());\n    }\n\n    // お金を引き出す(今回は不要)\n    // function withdraw() onlyOwner {\n    //     uint amount = address(this).balance;\n    //     require(amount >= goalAmount, \"Insufficient Savings\");\n    //     bool ok = msg.sender.call.value(amount)();\n    //     emit Withdraw(msg.sender, amount, ok);\n    // }\n}\n",
  "sourcePath": "/Users/kotaro/Documents/eth-piggy-bank/contracts/PiggyBank.sol",
  "compiler": {
    "name": "solc",
    "version": "0.4.25+commit.59dbf8f1.Emscripten.clang"
  },
  "schemaVersion": "3.0.0",
  "updatedAt": "2018-12-23T10:47:21.287Z",
  "devdoc": {
    "methods": {
      "isOwner()": {
        "return": "true if `msg.sender` is the owner of the contract."
      },
      "owner()": {
        "return": "the address of the owner."
      },
      "renounceOwnership()": {
        "details": "Allows the current owner to relinquish control of the contract."
      },
      "transferOwnership(address)": {
        "details": "Allows the current owner to transfer control of the contract to a newOwner.",
        "params": {
          "newOwner": "The address to transfer ownership to."
        }
      }
    }
  },
  "userdoc": {
    "methods": {
      "renounceOwnership()": {
        "notice": "Renouncing to ownership will leave the contract without an owner. It will not be possible to call the functions with the `onlyOwner` modifier anymore."
      }
    }
  }
}